{
  "transactions": [
    {
      "hash": "0xb70f20aab8eb4b566df5e6a2d429866b7bd7cf7abdec6acd35ef94aa5e16919d",
      "transactionType": "CALL",
      "contractName": null,
      "contractAddress": "0x6648743fde5825fa7b9201e25ca214c1e0b2dfca",
      "function": "mintNft(string)",
      "arguments": [
        "ipfs://bafybeig37ioir76s7mg5oobetncojcm3c3hxasyd4rvid4jqhy4gkaheg4/?filename=0-PUG.json"
      ],
      "transaction": {
        "from": "0x46efa6d7b7b5fc2f63caa7855a3e6ab31cf8cd47",
        "to": "0x6648743fde5825fa7b9201e25ca214c1e0b2dfca",
        "gas": "0x40fc0",
        "value": "0x0",
        "input": "0xda86f4a900000000000000000000000000000000000000000000000000000000000000200000000000000000000000000000000000000000000000000000000000000057697066733a2f2f62616679626569673337696f6972373673376d67356f6f6265746e636f6a636d3363336878617379643472766964346a71687934676b61686567342f3f66696c656e616d653d302d5055472e6a736f6e000000000000000000",
        "nonce": "0x36",
        "chainId": "0xaa36a7"
      },
      "additionalContracts": [],
      "isFixedGasLimit": false
    }
  ],
  "receipts": [
    {
      "status": "0x1",
      "cumulativeGasUsed": "0xcaca92",
      "logs": [
        {
          "address": "0x6648743fde5825fa7b9201e25ca214c1e0b2dfca",
          "topics": [
            "0xddf252ad1be2c89b69c2b068fc378daa952ba7f163c4a11628f55a4df523b3ef",
            "0x0000000000000000000000000000000000000000000000000000000000000000",
            "0x00000000000000000000000046efa6d7b7b5fc2f63caa7855a3e6ab31cf8cd47",
            "0x0000000000000000000000000000000000000000000000000000000000000000"
          ],
          "data": "0x",
          "blockHash": "0xe6d5bb66818783e89881db70918cb6f3e225318a9dab8eda10d3cc9e289970b0",
          "blockNumber": "0x756016",
          "transactionHash": "0xb70f20aab8eb4b566df5e6a2d429866b7bd7cf7abdec6acd35ef94aa5e16919d",
          "transactionIndex": "0x79",
          "logIndex": "0xb1",
          "removed": false
        }
      ],
      "logsBloom": "0x00000000000000000000000000000000000000000000000000000000000000000000000000000000000000000000080000000000000000000000000000000000000000000000000000000008000000000000000000000000000000000000000000000000020000000000000000000800000000000000000000000010000000000000000000000000000000000000000000000000000000000008000000000000000000400000100000000000000000000000000000000000000000000000000000000002000000000000000000000000000000000000000000000020000020000000000000000000000000000000000000000000000000000000000000000080",
      "type": "0x2",
      "transactionHash": "0xb70f20aab8eb4b566df5e6a2d429866b7bd7cf7abdec6acd35ef94aa5e16919d",
      "transactionIndex": "0x79",
      "blockHash": "0xe6d5bb66818783e89881db70918cb6f3e225318a9dab8eda10d3cc9e289970b0",
      "blockNumber": "0x756016",
      "gasUsed": "0x2c6f1",
      "effectiveGasPrice": "0x47e1fde85",
      "from": "0x46efa6d7b7b5fc2f63caa7855a3e6ab31cf8cd47",
      "to": "0x6648743fde5825fa7b9201e25ca214c1e0b2dfca",
      "contractAddress": null
    }
  ],
  "libraries": [],
  "pending": [],
  "returns": {},
  "timestamp": 1739361277,
  "chain": 11155111,
  "commit": "e9889de"
}